:020000040800F2
:10000000383D0020010100089B0B0008BF080008D4
:10001000650B000881060008551900080000000063
:100020000000000000000000000000003D1100087A
:100030008506000800000000271000085112000883
:100040001B0100081B0100081B0100081B01000820
:100050001B0100081B0100081B0100081B01000810
:100060001B0100081B0100081B0100081B01000800
:100070001B0100081B0100081B0100081B010008F0
:100080001B0100081B0100081B0100081B010008E0
:100090001B0100081B0100081B0100081B010008D0
:1000A0001B0100081B0100081B0100081B010008C0
:1000B0001B010008B51200081B0100081B01000805
:1000C0001B0100081B0100081B0100081B010008A0
:1000D0001B0100084D15000875150008B91500082A
:1000E0001B0100081B0100081B010008DFF80CD0F1
:1000F00000F0B4FA0048004751220008383D0020C3
:100100000648804706480047FEE7FEE7FEE7FEE7B1
:10011000FEE7FEE7FEE7FEE7FEE7FEE75512000812
:10012000ED00000810B5002200E0521C835C8C5CDE
:10013000A34201D1002BF8D1D8B2E1B2401A10BDD0
:100140002DE9FE4F804681EA0300C00F0C46009067
:1001500021F0004123F00045B8EB0200A94105D28F
:100160004046214690461C460B46024623F000407E
:10017000104347D0270DC7F30A00C3F30A5102907A
:10018000401A019040286BDAC3F3130040F4801B3F
:100190000098924620B10023D2EB030A63EB0B0BCD
:1001A00001985946C0F14002504600F0B0F90646A9
:1001B0000D4650465946019A00F0C8F910EB080068
:1001C0006141002487EA115284EAE7731A4340D060
:1001D000009A62B3019A012A4FEA075215DC001B0C
:1001E00061EB02014FF0004202EA0752CDE9004202
:1001F000001C41F5801132462B4600F0C8F903B0CF
:10020000BDE8F08F40462146F9E7001B61EB020193
:10021000001C41F5801300185B412018A2F500175F
:1002200047EB030140EAD570B6196D4111E06D0846
:100230004FEA360645EAC0754FEA0752001B61EBEC
:100240000201001C41F5801149084FEA30000019F5
:10025000514132462B4603B0BDE8F04F00F088B95B
:100260000098012240000023D0EB020263EBE07310
:10027000009821464FEAE074B8EB000061EB0401FE
:10028000E9E783F000435BE781F0004158E72DE99F
:10029000FE4F81EA030404F0004421F00041009481
:1002A0004FF0000B23F0004350EA01045ED052EA05
:1002B00003045BD0C3F30A54C1F30A552C44A4F2DF
:1002C000F3340194A0FB0254C1F3130141F48011F3
:1002D000C3F3130343F4801301FB024400FB034EFA
:1002E000840A970A44EA815447EA8357A4FB0768C3
:1002F00002958D0A05FB07854FEA932C04FB0C54ED
:100300002705029D4FEA065847EA1637B5EB080560
:100310006EEB070C870E920E47EA811742EA8312B2
:10032000A7FB0201B6EB0B0164EB00042B0D43EAC3
:100330000C335E1844EB1C50DA465146E7FB0201D1
:10034000C5F313044FEA0B3343EA14534FEA043264
:10035000019C43EA0603A4F10C040294009CCDE93D
:1003600000B400F014F903B0BDE8F08F002001469E
:10037000F9E72DE9F04D81EA030404F0004B21F088
:10038000004514464FF0000A23F0004150EA0502F0
:1003900020D054EA01021DD0C5F30A570246C5F326
:1003A0001303C1F31300C1F30A5640F4801543F45C
:1003B0008013A7EB0608101BD64608F2FD3873EB36
:1003C000050002D308F1010801E092185B41B8F181
:1003D000000F03DA00200146BDE8F08D00204FF445
:1003E0008011064684460EE0171B73EB050705D304
:1003F000121B63EB050306434CEA010C49084FEA64
:10040000300092185B4150EA0107EDD152EA030037
:1004100012D082EA040083EA0501084305D0101BCC
:10042000AB4106D20122002306E000224FF0004338
:1004300002E06FF0010253101AEB06004CEB08517A
:1004400010EB0A0041EB0B01BDE8F04D00F090B855
:1004500030B5041E71F1000404DB4FF0004440424B
:1004600064EB0101141E73F1000405DB1C464FF020
:100470000043524263EB0403994208BF904230BDEF
:1004800030B50B46014600202022012409E021FA64
:1004900002F59D4205D303FA02F5491B04FA02F561
:1004A0002844151EA2F10102F1DC30BD2DE9F05FF8
:1004B0000546002092469B468846064681464024D3
:1004C0001BE0284641464746224600F02FF8534697
:1004D0005A46C01A914110D311461846224600F0E0
:1004E00016F82D1A67EB01084F462246012000211D
:1004F00000F00DF817EB00094E41201EA4F1010495
:10050000DFDC484631462A464346BDE8F09F202AB4
:1005100004DB203A00FA02F1002070479140C2F15A
:10052000200320FA03F3194390407047202A04DB8C
:10053000203A21FA02F00021704721FA02F3D0405C
:10054000C2F120029140084319467047202A06DB79
:10055000CB17203A41FA02F043EAE07306E041FA91
:1005600002F3D040C2F1200291400843194670477F
:1005700010B5141E73F1000408DA401C41F10001AB
:1005800092185B411A4301D120F0010010BD2DE902
:10059000F04D92469B4611B1B1FA81F202E0B0FAF9
:1005A00080F220329046FFF7B2FF04460F4640EA41
:1005B0000A0041EA0B0153465A46084313D011463C
:1005C00053EA010019D0C8F140025046FFF7AEFFD0
:1005D00005460E46504659464246FFF798FF0843E7
:1005E00005D0012004E020463946BDE8F08D00200A
:1005F000054346EAE0762C4337430A986305E40A4C
:10060000A0EB08000022FD0A44EA47540A3002D554
:1006100000200146E9E7010510196941DDE90845B7
:1006200000196941BDE8F04DA2E7C1F30A52C1F3D8
:10063000130140F2FF3341F480119A4202DA0020A4
:100640000146704740F233439A42A2F2334202DC41
:100650005242FFF76BBFFFF75ABF0000064C074D31
:1006600006E0E06840F0010394E807009847103482
:10067000AC42F6D3FFF73EFDA42B0008C42B0008C4
:1006800000BFFEE77047000030B5044604254FF474
:10069000302000F06FF80546042D17D10C48006992
:1006A00040F002000A49086108464461006940F0D0
:1006B000400008614FF4302000F05CF80546044823
:1006C000006941F6FD71084001490861284630BDC6
:1006D0000020024004200B49C96801F0010109B162
:1006E00001200EE00749C96801F0040109B10220A8
:1006F00007E00449C96801F0100109B1032000E0D6
:1007000004207047002002400348006940F0800048
:1007100001490861704700000020024070B504469E
:100720000D460426F00200F025F80646042E11D1ED
:100730000948006940F00100074908612580F0027E
:1007400000F018F806460448006941F6FE710840BA
:1007500001490861304670BD00200240024803494B
:100760004860034848607047230167450020024005
:10077000AB89EFCD00B502460423FFF7ABFF03467C
:1007800003E0FFF7A7FF0346521E012B01D1002A09
:10079000F7D102B90523184600BD2DE9F041024604
:1007A00000250026002000230024002791F803C024
:1007B0000CF00F0591F803C00CF0100CBCF1000F09
:1007C00003D091F802C04CEA050591F800C0BCF1D5
:1007D000000F31D0146800202BE04FF0010C0CFA10
:1007E00000F3B1F800C00CEA03069E4220D183005A
:1007F0004FF00F0C0CFA03F7BC4305FA03FC4CEA6C
:10080000040491F803C0BCF1280F06D14FF0010C8D
:100810000CFA00FCC2F814C00AE091F803C0BCF165
:10082000480F05D14FF0010C0CFA00FCC2F810C0C3
:10083000401C0828D1D31460B1F800C0BCF1FF0FF0
:1008400034DD546800202EE000F1080C4FF0010860
:1008500008FA0CF3B1F800C00CEA03069E4221D15D
:1008600083004FF00F0C0CFA03F7BC4305FA03FCAE
:100870004CEA040491F803C0BCF1280F05D100F143
:10088000080C08FA0CF8C2F8148091F803C0BCF107
:10089000480F07D100F1080C4FF0010808FA0CF8D6
:1008A000C2F81080401C0828CED35460BDE8F08107
:1008B000016170470AB1016100E04161704700BF0A
:1008C000FEE7000008B50121042000F0BDFB482030
:1008D0008DF803004FF48450ADF8000003208DF82C
:1008E000020069460148FFF758FF08BD00080140B3
:1008F00010B500F0E9F9AE2000F06EFBD52000F055
:100900006BFB802000F068FBA82000F065FB3F2017
:1009100000F062FBD32000F05FFB002000F05CFBE6
:10092000402000F059FBA12000F056FBC82000F049
:1009300053FBDA2000F050FB122000F04DFB812029
:1009400000F04AFBCF2000F047FBD92000F044FB29
:10095000F12000F041FBDB2000F03EFB302000F0F6
:100960003BFBA42000F038FBA62000F035FB8D20D7
:1009700000F032FB142000F02FFBAF2000F02CFB26
:1009800003A20021084600F019FA00F0F9FA10BDA0
:10099000E4BDA0E5A5BDE4B896E7958CEFBC8C005E
:1009A00000B589B00121084600F03EFB012104207A
:1009B00000F04AFB18208DF823000120ADF820003C
:1009C00003208DF8220008A91A48FFF7E6FE4FF031
:1009D000804000F0A6FC0020ADF81A00ADF816002B
:1009E0006320ADF8180040F2CF20ADF814000020CD
:1009F0008DF81C0005A94FF0804000F0EFFC01A825
:100A000000F0E2FC6020ADF804000020ADF80C001E
:100A10000120ADF806000020ADF80A0001A94FF052
:100A2000804000F085FC0121880700F054FC09B0EB
:100A300000BD00000008014010B5164800F0AAF8FB
:100A40004AF2A551884214D0124800F08DF84AF2BB
:100A5000A551104800F092F8012407E00D4901EB80
:100A60004400002100F08AF8601C84B2B4F5007FD5
:100A7000F4DB002409E0074901EB440000F08AF8A8
:100A8000054921F81400601C84B2B4F5007FF2DB44
:100A900010BD000000FC00081C00002010B54FF441
:100AA000A06000F0B3F8FFF723FFFFF70BFF00F0A3
:100AB0003FF800F025F8FFF773FF00F015F802A0EB
:100AC00000F04AFF10BD000053797374656D206912
:100AD0006E697469616C2066696E6973682E2E2E6A
:100AE0002E2E2E0D0A00000010B540F69F7244F223
:100AF0004F61024800F0C4FC10BD0000000400403B
:100B000010B54FF4E131074800F066FE4FF4E131D3
:100B1000054800F061FE4FF4E131044800F05CFE4E
:100B200010BD000000380140004400400048004073
:100B300008B50121042000F087FA0320ADF8000079
:100B400010208DF8030003208DF802006946044848
:100B5000FFF723FE03210248FFF7AAFE08BD0000AD
:100B60000008014000BFFEE710B50446FFF7F6FDA0
:100B70002046FFF789FDFFF7C7FD10BD70B504469D
:100B80000D46FFF7EBFD29462046FFF7C7FDFFF7AF
:100B9000BBFD70BD014608887047704770B50021E5
:100BA00000230F22C47804B3154C246804F4E064D5
:100BB000C4F5E064210AC1F10403CA40447804FA90
:100BC00003F184781440214309010E4C0678A155A5
:100BD000047804F01F050124AC4005786D11AD00C8
:100BE00005F1E025C5F8004109E0047804F01F058F
:100BF0000124AC40044D0678761145F8264070BDBE
:100C00000CED00E000E400E080E100E00249014377
:100C1000024A1160704700000000FA050CED00E088
:100C20002DE9F04304460D4616461F467F2C01DD94
:100C3000BDE8F0833F2D00DDFAE7A119802902DD30
:100C4000C4F18001CEB2E919402902DDC5F14001AD
:100C5000CFB2284630E0234629E04FEAE07C00EBA3
:100C60005C7C4FEAEC0CDFF85C8008EBCC1C1CF8D9
:100C700003C002464FEAE07800EB58784FEAE808F4
:100C8000A0EBC8094FF0010808FA09F82CEA080C93
:100C900001464FEAE07800EB58784FEAE808DFF8C1
:100CA000249009EBC81808F803C0591CCBB2A1194D
:100CB0009942D2DC411CC8B2E9198142CBDC00BFA9
:100CC000B6E700003435002038B5002406E00025E2
:100CD00000E06D1CB5F57A7FFBD3641CB4F57A7F18
:100CE000F5D30121082000F0AFF914208DF803009E
:100CF00003208DF802004FF48070ADF800006946C3
:100D00000848FFF74AFD4FF40070ADF8000069464F
:100D10000448FFF742FD012000F046F9012000F0F1
:100D20004FF938BD000C014070B50546002411E0B4
:100D300080212141294009B1012100E0002108461C
:100D400000F03EF9012000F02FF9002000F02CF90E
:100D5000601CC4B2082CEBDB012000F025F9002058
:100D600000F022F970BD10B5012000F029F9012032
:100D700000F01AF9002000F023F9002000F014F927
:100D800010BD10B5002000F01BF9012000F00CF997
:100D9000012000F015F910BD70B505460C4645F070
:100DA000B00000F019F9102141EA141000F014F914
:100DB00004F00F0000F010F970BD00002DE9FC47B1
:100DC000804689461646002700200190002538E01D
:100DD000705D01A9C855781CC7B2032F2FDB00270F
:100DE00000240BE004EBC401184A02EB810001A9C6
:100DF000FFF798F900B90BE0601CC4B204EBC40122
:100E0000124A02EB810012A1FFF78CF90028E9D108
:100E100000BF681C032190FBF1F0401E08EB00109E
:100E200000F0FF0A04EBC400084901EB8000001D3C
:100E300010231A4649460090504600F00BF8681CF3
:100E4000C5B2705D0028C3D1BDE8FC87862A0008C2
:100E5000000000002DE9F04707460C4690469946F1
:100E6000DDF820A07F2F01DDBDE8F0873F2C00DDFD
:100E7000FAE74B46424621463846FFF7D1FE0025A9
:100E800070E0002669E0B8197F2800DD67E0E1170F
:100E900004EB517105EBE101072900DDE4E7204691
:100EA000E21704EB527205EBE202344B03EBC21281
:100EB000BB19D25C2146E31704EB5373DB10A4EBA0
:100EC000C30305FB086C1AF80CC00CFA03FC42EAD9
:100ED0000C02E31704EB537305EBE303DFF89CC04C
:100EE0000CEBC31307EB060C03F80C20E11704EB23
:100EF000517105EBE101491C072900DD2BE020467B
:100F0000E21704EB527205EBE202521C1B4B03EB9F
:100F1000C212BB19D25C2146E31704EB5373DB10FA
:100F2000A4EBC303C3F1080305FB086C1AF80CC05B
:100F30004CFA03FC42EA0C02E31704EB537305EB93
:100F4000E3035B1CDFF834C00CEBC31307EB060CA8
:100F500003F80C2000BF701CC6B2464593DB00BFEF
:100F6000681CC5B2A9F10100C11700EB5171012243
:100F700002EBE101A94284DC00BF75E734350020B3
:100F800010B500240BE000212046FFF705FF0549BE
:100F900001EBC410802100F02FF8601CC4B2082CB3
:100FA000F1DB10BD3435002010B5044622464FF465
:100FB00080710248FFF77EFC10BD0000000C01406C
:100FC00010B5044622464FF400710248FFF772FC48
:100FD00010BD0000000C014010B50446FFF7C3FE31
:100FE0007820FFF7A1FE0020FFF79EFE2046FFF7C6
:100FF0009BFEFFF7C6FE10BD70B505460E46FFF717
:10100000B2FE7820FFF790FE4020FFF78DFE00240F
:1010100004E0285DFFF788FE601CC4B2B442F8DB30
:10102000FFF7AFFE70BD704729B1064AD26902438F
:10103000044BDA6104E0034AD2698243014BDA616E
:10104000704700000010024029B1064A926902432D
:10105000044B9A6104E0034A92698243014B9A610E
:10106000704700000010024030B50021002200242B
:1010700000232D4D6D6805F00C0121B1042905D028
:10108000082923D105E0294D056022E0274D0560A0
:101090001FE0254D6D6805F47012234D6D6805F451
:1010A0008034022505EB92421CB9214D5543056061
:1010B0000BE01D4D6D6805F400351DB11C4D554309
:1010C000056002E0194D5543056002E0174D0560CB
:1010D00000BF00BF144D6D6805F0F0010909154D02
:1010E0006B5C0568DD4045600F4D6D6805F4E0619F
:1010F000090A104D6B5C4568DD4085600A4D6D68DE
:1011000005F46051C90A0B4D6B5C4568DD40C56054
:10111000054D6D6805F44041890B074D6B5CC56852
:10112000B5FBF3F5056130BD0010024000127A00F6
:1011300000093D000000002010000020704710B59D
:1011400000F002F810BD00000CB5002001900090E6
:101150003348006840F480303149086000BF3048AF
:10116000006800F4003000900198401C0190009845
:1011700018B90198B0F5A06FF1D12948006800F4C2
:10118000003010B10120009001E000200090009894
:10119000012843D12348006840F01000214908602D
:1011A0000846006820F0030008600846006840F028
:1011B000020008601A4840681949486008464068BB
:1011C00048600846406840F48060486008464068CF
:1011D00020F47C1048600846406840F4E8104860FD
:1011E0000846006840F08070086000BF0C48006846
:1011F00000F000700028F9D00948406820F0030092
:10120000074948600846406840F00200486000BF57
:101210000348406800F00C000828F9D10CBD00001C
:101220000010024000200240012801D1054A11703F
:10123000022801D1044A1170032801D1034A117018
:10124000704700001C040020241400202C240020DF
:101250007047000010B51348006840F001001149C4
:10126000086008464068104908400E494860084632
:1012700000680E4908400B4908600846006820F4E1
:10128000802008600846406820F4FE0048604FF463
:101290001F008860FFF753FF4FF0006004490860AB
:1012A00010BD0000001002400000FFF8FFFFF6FE36
:1012B00008ED00E010B50121044800F018F818B15D
:1012C0000121024800F004F810BD000000040040B5
:1012D000CA430282704721B1028842F001020280B3
:1012E00004E002884FF6FE731A400280704730B562
:1012F0000246002000230024158A05EA010395898F
:1013000005EA010413B10CB1012000E0002030BD5A
:101310001AB183890B43838102E083898B438381E4
:10132000704701894FF6F872114001817047000043
:1013300070B5002400220023058C4FF6FE76354060
:101340000584028C8388048B4FF68F752C40B51E64
:101350002C400D882C43751E2A400D892A434D8848
:101360002A43144DA8420BD0134DA84208D0134D68
:10137000A84205D0124DA84202D0124DA84213D166
:101380004FF6F7752A404D892A434FF6FB752A40E0
:101390008D882A434FF6FF652B404FF6FF552B40B3
:1013A0008D892B43CD892B4383800483CD8885860B
:1013B000028470BD002C0140003401400040014017
:1013C00000440140004801400021018041808180AB
:1013D000C180018141818181C181704700220288E1
:1013E0001D4B98420ED01D4B98420BD0B0F1804F50
:1013F00008D01B4B984205D01A4B984202D01A4B8A
:10140000984204D14FF68F731A404B881A43174BFA
:10141000984207D0164B984204D04FF6FF431A402B
:10142000CB881A4302808B8883850B8803850A4BFF
:1014300098420BD0094B984208D00E4B984205D0E9
:101440000D4B984202D00D4B984201D10B7A038686
:101450000123838270470000002C014000340140CA
:101460000004004000080040000C00400010004054
:101470000014004000400140004401400048014089
:101480007FB504460D4616462E48844212D10121EE
:10149000C014FFF7D9FD19208DF8000001208DF848
:1014A00003008DF8010000208DF802006846FFF768
:1014B00075FB29E0B4F1804F11D101210846FFF7F7
:1014C000B3FD1C208DF8000001208DF803008DF87D
:1014D00001008DF802006846FFF760FB14E01A482F
:1014E000844211D101210220FFF79EFD1D208DF8BD
:1014F000000001208DF803008DF8010002208DF816
:1015000002006846FFF74AFB0020ADF80A00ADF87C
:101510000600ADF80860ADF804508DF80C0001A984
:101520002046FFF75BFF012211462046FFF7F0FE41
:1015300001212046FFF7CCFE01212046FFF7CBFE1C
:101540007FBD0000002C01400004004010B540F2B7
:101550002551074800F07AF8012808D101210846F2
:10156000FFF762FE40F22551014800F047F810BD38
:101570000038014010B540F225510C4800F066F8E3
:10158000012811D10A4800F01DF90A4908700748DE
:1015900000F018F904462146044800F018F940F21A
:1015A0002551024800F02AF810BD00000044004018
:1015B000003801401400002010B540F225510C48BD
:1015C00000F044F8012811D10A4800F0FBF80A495C
:1015D0000870074800F0F6F804462146044800F079
:1015E000F6F840F22551024800F008F810BD00005E
:1015F00000480040003801401400002010B50022CF
:10160000002340F66A14A14200D100BF0A1201244F
:101610009440A3B2DC43048010BD21B1828942F41E
:101620000052828104E082894DF6FF731A40828164
:10163000704702460020B1F5007F00D100BF13883B
:101640000B400BB1012000E00020704770B502464E
:10165000002400230025002040F66A16B14200D184
:1016600000BFC1F3421501F01F03012606FA03F380
:10167000012D02D19689334006E0022D02D1168A4F
:10168000334001E0968A33400C12012606FA04F436
:101690001688344013B10CB1012000E0002070BD69
:1016A000F0B50346002400260025002040F66A1706
:1016B000B94200D100BF1846C1F3421401F01F0621
:1016C000012707FA06F5012C01D10C3004E0022CA9
:1016D00001D1103000E014301AB107682F430760C1
:1016E00002E00768AF430760F0BD00002DE9F04756
:1016F00086B005460E460024A24600BFA14600273C
:10170000B08900B100BF2F462C8A4CF6FF70044010
:10171000F08804432C82AC894EF6F3100440B08864
:1017200031890843718908430443AC81AC8A4FF680
:10173000FF400440B0890443AC8201A8FFF794FC49
:101740001F48874202D1DDF810A001E0DDF80CA0AF
:10175000A88900F4004040B10AEBCA0000EB0A106F
:1017600031684900B0FBF1F807E00AEBCA0000EB72
:101770000A1031688900B0FBF1F86420B8FBF0F082
:1017800004012009642101FB1089A88900F40040AC
:1017900040B1322000EBC900B0FBF1F000F00700CF
:1017A000044308E0322000EB09106421B0FBF1F0A3
:1017B00000F00F0004432C8106B0BDE8F087000064
:1017C0000038014001468888C0F308007047C1F323
:1017D000080282807047000030B587B004460D468D
:1017E000574884422BD1012144F20400FFF72CFC1E
:1017F00018208DF81B006015ADF8180003208DF837
:101800001A0006A94F48FEF7C8FF04208DF81B00F8
:101810000002ADF8180006A94A48FEF7BEFF2520D1
:101820008DF8040001208DF8070002208DF80500D6
:1018300000208DF8060001A8FFF7B0F962E04248E9
:1018400084422ED101210420FFF7FEFB0121480430
:10185000FFF7EAFB18208DF81B000420ADF81800F4
:1018600003208DF81A0006A93648FEF796FF0420DB
:101870008DF81B000820ADF8180006A93148FEF7C6
:101880008CFF26208DF8040001208DF8070002202F
:101890008DF8050001208DF8060001A8FFF77EF9FC
:1018A00030E02A4884422DD101210820FFF7CCFBEB
:1018B00001218804FFF7B8FB18208DF81B002015C4
:1018C000ADF8180003208DF81A0006A92048FEF78D
:1018D00064FF04208DF81B004002ADF8180006A933
:1018E0001B48FEF75AFF27208DF8040001208DF8D1
:1018F000070002208DF8050000208DF8060001A8E1
:10190000FFF74CF902950020ADF814000C20ADF85B
:1019100012000020ADF81000ADF80E00ADF80C007C
:1019200002A92046FFF7E2FE012240F2255120469F
:10193000FFF7B6FE01212046FFF76FFE07B030BD6E
:1019400000380140000801400044004000480040C9
:10195000000C014000BFFEE70FB4054B10B503A912
:10196000044A029800F0CAF810BC5DF814FB0000AD
:101970002D2200081800002002E008C8121F08C12C
:10198000002AFAD170477047002001E001C1121F00
:10199000002AFBD1704700002DE9FF5FDDE902203E
:1019A000010DDDF838B0024318D044F61050A1F212
:1019B000FF3141430D140F98012820D0A5EB0B00F7
:1019C000401C5FEA000A4FF00004474EDFF81C910C
:1019D000A046504616D5CAF1000728E00F9801240A
:1019E00043A2012808D0002100980F9BC0E90021E4
:1019F000C0E90243BDE8FF9F6FEA0B01F4E7CBF1BA
:101A00000000DEE7074612E0F80707D0224633461B
:101A100040464946FEF73BFC80468946224633460F
:101A200010461946FEF733FC04460E467F10002F81
:101A3000EAD1DDE90201BAF1000F42464B4602DA73
:101A4000FEF725FC01E0FEF794FC04460E4600225A
:101A5000284BFEF7FDFC03D84FF0FF30014607E0AE
:101A60000022254B20463146FEF76AFBFEF7DDFDDE
:101A7000102409E0002C0ADB0A220023FEF716FDE1
:101A8000019B30321A55641E50EA0102F2D1641CE7
:101A9000019AC4F1110314440F9A012A03D00122C0
:101AA00008430DD10AE0084304D000204FF0110B89
:101AB0000F9080E7A3EB0B056D1E0DE05B4504DD89
:101AC0004FF0000205F1010504E003DA4FF00002D7
:101AD000A5F10105002AECD000980F99C0E9023168
:101AE000C0E9004586E70000000024400000F03F08
:101AF000300000000000F0430000E03F2DE9FF4F00
:101B000095B09B468946064600250FE2252877D1E9
:101B100000242746F84A0121059400E0044316F802
:101B2000013F203B01FA03F01042F7D130782A2818
:101B300011D06FF02F033078A0F13002092A16D8A7
:101B4000059A44F0020402EB820203EB42021044C5
:101B5000761C0590EFE759F8042B0592002A03DA6A
:101B6000504244F40054059044F00204761C30784E
:101B70002E2816D116F8010F44F004042A280DD09F
:101B80006FF02F023078A0F13003092B09D807EB52
:101B9000870302EB4303C718761CF3E759F8047B6D
:101BA000761C30786C280FD006DC4C2817D06828BB
:101BB0000DD06A2814D104E0742810D07A280FD1EF
:101BC0000DE044F400140AE044F4801401E044F40D
:101BD00040147278824202D104F58014761C761C7F
:101BE000307866280BD013DC582877D009DC002821
:101BF00075D04528F6D04628F4D047281AD19DE163
:101C000018E0632835D0642879D0652812D195E191
:101C1000702873D008DC6728F1D069286FD06E284F
:101C20000DD06F2806D1B5E073282CD0752875D05B
:101C3000782874D05A46179990476D1C75E1C4F303
:101C40000250022809D003280DD0D9F8001004282A
:101C50000DD00D6009F1040967E1D9F80010EA1709
:101C6000C1E90052F6E7D9F800100D80F2E70D70D7
:101C7000F0E719F8041B8DF8001000208DF8010022
:101C8000EA46012003E059F804AB4FF0FF3061074A
:101C90004FF0000102D40DE008F101018846B9427D
:101CA0000FDA8045F8DB1AF808100029F4D108E0B3
:101CB00008F1010188468142FADB1AF80810002970
:101CC000F6D105985B46A0EB080721463846179ADF
:101CD00000F094FA284400EB080507E04DE029E104
:101CE0000DE01AF8010B5A4617999047B8F1010810
:101CF000F7D25B4621463846179A13E142E00A22A2
:101D00000092C4F302524FF0000A022A08D059F898
:101D100004CB032A4FEAEC710AD00DE029E02AE057
:101D200009F1070121F00702F2E802C1914609E03A
:101D30000FFA8CFC4FEAEC71042A03D14FFA8CFCA9
:101D40004FEAEC71002907DA0A460021DCF1000CA9
:101D500061EB02012D2202E0220504D52B228DF831
:101D60000420012203E0E20701D02022F7E7904699
:101D700059E00A2102E010220DE010214FF0000A84
:101D800000910BE010224FF0000A44F004040827F1
:101D9000009203E008224FF0000A0092C4F30252BE
:101DA000022A05D059F804CB0021032A08D009E003
:101DB00009F1070121F00702F2E802C1914605E0AE
:101DC0001FFA8CFC042A01D10CF0FF0C4FF0000824
:101DD000220728D5702806D0009B83F0100353EA11
:101DE0000A0305D00EE040228DF80420012208E00D
:101DF0005CEA010206D030228DF804208DF805003F
:101E000002229046009B83F0080353EA0A030AD19A
:101E10005CEA010201D1620705D530228DF8042069
:101E20004FF001087F1E582804D034A003900EA85C
:101E300002900DE036A0F9E753466046009AFEF79F
:101E400035FB84460398825C0298401E0290027023
:101E50005CEA0100F0D1029806A9081A00F1200AF4
:101E6000600702D524F4803400E00127574502DDE5
:101E7000A7EB0A0000E0002000EB0A0100900598A3
:101E80004144401A0590E00306D45B462146179A68
:101E9000059800F0B3F90544002706E001A85A466A
:101EA000C05D179990476D1C7F1C4745F6DBE0032A
:101EB0000CD55B462146179A059800F09FF905441A
:101EC00004E030205A46179990476D1C0099481E2F
:101ED00000900029F5DC08E0029802995A46007843
:101EE000491C0291179990476D1CBAF10001AAF1A3
:101EF000010AF1DC65E100000928010030313233CC
:101F00003435363738396162636465660000000035
:101F1000303132333435363738394142434445461F
:101F20000000000000F058F90544761C30780028C5
:101F30007FF4ECAD19B02846BDE8F08F620700D4FD
:101F4000062709F1070222F0070CFCE80223E1460C
:101F500003F000485FEA080C02D00FF2702C0DE08D
:101F60005FEA045C02D50FF2682C07E05FEAC47CEC
:101F700002D00FF2602C01E0AFF2700C4FF0FF388E
:101F800023F00043CDF850C065280CD006DC45286E
:101F900009D046281DD047283DD13DE0662818D0FD
:101FA00067287ED138E00021112F01DB112000E0ED
:101FB000781CCDE9000106A90EA8FFF7EDFCDDE9CC
:101FC0000F010E9A03910021009207F1010A04917A
:101FD0004DE04FF000400097CDE9011006A90EA892
:101FE000FFF7DAFCDDE90F0203920E9B1199002244
:101FF000DDF80CA00093049211B9791C00EB010AE2
:10200000B7EB0A0004D4C0F1FF3007F1010A0490D5
:10201000AAEB0700019044E0012F00DA012700211C
:10202000112F01DD112000E03846CDE9000106A99D
:102030000EA8FFF7B1FCDDE90F010E9A0391002114
:1020400004910092BA4621070CD40399514500DA55
:102050008A46BAF1010F05DD009AAAF10101515C2F
:10206000302908D0B84202DA10F1040F06DA012153
:10207000CDE9011015E0AAF10101E9E7002805DC2E
:10208000049901440491AAEB000102E0411C51456E
:1020900000DD8A460499401A401C01904FF0004030
:1020A0000290200704D40198504501DBCDF804804C
:1020B00000208DF84F0002980DF14F07B0F1004F4E
:1020C00025D02B200E9002984FF0020800280CDA41
:1020D000404202902D200E9007E00A210298FEF760
:1020E000CFF93031029007F8011DB8F10001A8F1D5
:1020F0000108F2DC02980028EFD1791E0E980870D2
:10210000307800F0200040F0450007F8020D12A8DA
:10211000C01B00F107081498007800B1012000EB03
:102120000A01019801EBE07105984144401A401EF4
:102130000590E00306D45B462146179A059800F007
:102140005DF805441498007818B15A4617999047DD
:102150006D1CE00324D55B462146179A059800F0D4
:102160004DF805441CE00498002807DBDDE9030175
:10217000884203DD0098405C179901E017993020F0
:102180005A469047049805F10105401C04900198B7
:10219000401E019004D12E205A46179990476D1C7D
:1021A000BAF10001AAF1010ADDDC05E017F8010B24
:1021B0005A46179990476D1CB8F10001A8F1010823
:1021C000F4DC5B462146179A0598ABE62D0000002B
:1021D0002B000000200000002DE9F04104460025FE
:1021E0001E461746880404D405E039462020B0472F
:1021F0006D1C641EF9D52846BDE8F0812DE9F0413B
:10220000044600251E469046C80301D5302700E04D
:102210002027880404D505E041463846B0476D1CA8
:10222000641EF9D52846BDE8F081000070B504466B
:102230000D46A1B20548FFF7CAFA00BF8021034846
:10224000FFF7F7F90028F9D0204670BD00380140AB
:10225000FEF724FCFEF7F0FB00BFFEE700000000E5
:10226000000000000000000000000000000000F876
:1022700000000000000000333000000000160E00D7
:10228000160E0000000000000000000040C0784072
:10229000C0784000043F04043F040400007088FC40
:1022A00008300000001820FF211E0000F008F00098
:1022B000E018000000211C031E211E0000F0088809
:1022C000700000001E212324192721100000001691
:1022D0000E0000000000000000000000000000E010
:1022E0001804020000000007182040000002041833
:1022F000E00000000040201807000000404080F08F
:10230000804040000202010F01020200000000F0C4
:10231000000000000101011F010101000000000098
:102320000000000000B0700000000000000000008D
:102330000000000000010101010101010000000096
:10234000000000000030300000000000000000002D
:1023500080601804006018060100000000E010080A
:102360000810E000000F102020100F00001010F8DF
:10237000000000000020203F20200000007008081E
:10238000088870000030282422213000003008889E
:10239000884830000018202020110E000000C020C6
:1023A00010F8000000070424243F240000F80888E7
:1023B000880808000019212020110E0000E0108874
:1023C00088180000000F112020110E0000380808A6
:1023D000C83808000000003F0000000000708808B6
:1023E00008887000001C222121221C0000E0100837
:1023F0000810E0000000312222110F00000000C090
:10240000C00000000000003030000000000000C0EC
:10241000C0000000000080B070000000000080409C
:102420002010080000010204081020004040404035
:102430004040400004040404040404000008102088
:1024400040800000002010080402010000704808CD
:102450000808F0000000003036010000C030C82835
:10246000E810E0000718272423140B000000C038F0
:10247000E0000000203C23020227382008F888886A
:1024800088700000203F202020110E00C030080876
:1024900008083800071820202010080008F808084D
:1024A0000810E000203F202020100F0008F8888846
:1024B000E8081000203F20202320180008F8888812
:1024C000E8081000203F200003000000C03008088A
:1024D0000838000007182020221E020008F8080013
:1024E0000008F808203F210101213F20000808F8DA
:1024F000080800000020203F2020000000000808FD
:10250000F8080800C08080807F00000008F888C0BC
:1025100028180800203F20012638200008F808006D
:1025200000000000203F20202020300008F8F800A4
:10253000F8F80800203F003F003F200008F830C0B6
:102540000008F808203F200007183F00E0100808A6
:102550000810E0000F10202020100F0008F80808D5
:102560000808F000203F210101010000E0100808E8
:102570000810E0000F18242438504F0008F888880D
:1025800088887000203F2000030C302000708808ED
:10259000080838000038202121221C00180808F8FB
:1025A000080818000000203F2000000008F808007C
:1025B0000008F808001F202020201F00087888004D
:1025C00000C83808000007380E010000F80800F8BD
:1025D0000008F800033C0700073C03000818688067
:1025E0008068180820302C03032C30200838C800DD
:1025F000C83808000000203F20000000100808082C
:10260000C83808002038262120201800000000FECD
:10261000020202000000007F40404000000C30C079
:1026200000000000000000010638C00000020202A5
:10263000FE000000004040407F0000000020100825
:10264000040810200000000000000000000000004E
:10265000000000008080808080808080000204086C
:10266000000000000000000000000000000080806A
:10267000808000000019242222223F2008F80080D8
:1026800080000000003F112020110E00000000809B
:1026900080800000000E112020201100000000802A
:1026A0008088F800000E112020103F20000080805C
:1026B00080800000001F222222221300008080F070
:1026C000888888180020203F20200000000080809B
:1026D00080808000006B94949493600008F80080E0
:1026E00080800000203F210000203F20008098983B
:1026F000000000000020203F20200000000000809B
:102700009898000000C08080807F000008F80000DA
:1027100080808000203F24022D302000000808F82F
:10272000000000000020203F2020000080808080EA
:1027300080808000203F20003F20003F00808000FC
:102740008080000000203F2100203F20000080808A
:1027500080800000001F202020201F00808000803B
:102760008000000080FFA12020110E0000000080EA
:1027700080808000000E112020A0FF8080808000DB
:102780008080800020203F21200001000000808008
:10279000808080000033242424241900008080E0FD
:1027A000808000000000001F2020000080800000CA
:1027B00000808000001F202020103F2080808000AB
:1027C0000080808000010E300806010080800080BB
:1027D000008080800F300C030C300F0000808000E0
:1027E000808080000020312E0E312000808080000B
:1027F0000080808080818E701806010000808080BB
:10280000808080000021302C222130000000000058
:10281000807C020200000000003F404000000000F9
:10282000FF00000000000000FF0000000002027C2A
:10283000800000000040403F000000000080404059
:102840008000008000000000000101000000000086
:1028500000000000002F0000000007000700001427
:102860007F147F1400242A7F2A1200231308646235
:1028700000364955225000000007000000001C22CD
:102880004100000041221C000014083E081400080A
:10289000083E0808000000A06000000808080808BA
:1028A000000060600000002010080402003E514952
:1028B000453E0000427F40000042615149460021F0
:1028C00041454B31001814127F100027454545390A
:1028D000003C4A4949300001710905030036494965
:1028E000493600064949291E00003636000000001E
:1028F0005636000000081422410000141414141469
:10290000000041221408000201510906003E495509
:10291000592E007C1211127C007F49494936003E35
:1029200041414122007F4141221C007F49494941E8
:10293000007F09090901003E4149497A007F0808E2
:10294000087F0000417F4100002040413F01007F9F
:1029500008142241007F40404040007F020C027F6B
:10296000007F0408107F003E4141413E007F09097D
:102970000906003E4151215E007F091929460046A3
:10298000494949310001017F0101003F4040403F7A
:10299000001F2040201F003F4038403F00631408C4
:1029A000146300070870080700615149454300009F
:1029B0007F414100000204081020000041417F00D7
:1029C00000040201020400404040404000000102B7
:1029D0000400002054545478007F484444380038A0
:1029E0004444442000384444487F00385454541828
:1029F00000087E0901020018A4A4A47C007F08043A
:102A000004780000447D4000004080847D00007F09
:102A1000102844000000417F4000007C0418047826
:102A2000007C0804047800384444443800FC242422
:102A300024180018242418FC007C0804040800480A
:102A40005454542000043F444020003C4040207C2B
:102A5000001C2040201C003C4030403C004428101A
:102A60002844001CA0A0A07C004464544C440000F6
:102A7000087F41000000007F00000000417F080047
:102A8000000804081008EFBC8C00000000000000E3
:102A900000000000000000000000000058380000A6
:102AA00000000000000000000000E3808200000041
:102AB0000000000000000000000000000000000016
:102AC0001824241800000000000000000000E4BDED
:102AD000A000008060F8074020180F08C8080828E8
:102AE0001800010000FF00100C0340807F00010669
:102AF0001800E5A5BD001010F01F10F000808282C4
:102B0000E2928A868000402215081661000040800B
:102B10007F0000000000E4B89600202020FE202066
:102B2000FF202020FF20202020000000007F4040C8
:102B300047444444474040400000E7958C00000073
:102B400000FE929292FE929292FE0000000008080F
:102B50000484621E010001FE020404080800000053
:102B60000000FF0101013109090909897101010111
:102B700001FFFF80808080808096818080808080BF
:102B800080FFFF01818181FD8991A1C1FD8181814A
:102B900001FFFF808080809F888482819F80808069
:102BA00080FF0000C42B0008000000201C00000073
:102BB00078190008E02B00081C0000201C3D0000D4
:102BC0008819000800000000010203040102030448
:102BD00006070809020406080000000000000000C3
:0400000508000101ED
:00000001FF
